:100000000110000000000000C01A0000FF00000006
:10001000020AAF751AFF22FFFFFFFF0214297E03B9
:1000200090007AE06F6007EFF0E490007DF09000C0
:100030007AE07001FE90007DE004F0C39E50037FE3
:10004000002290007D7403F07F01220215A4E4FBDE
:10005000EB25E025E0247FF8120232EB25E025E0D5
:10006000248BF812024B0BBB03E622020EC2BB012B
:100070000689828A83E0225002E722BBFE02E32245
:1000800089828A83E49322EF8DF0A4A8F0CF8CF0CC
:10009000A428CE8DF0A42EFE22BC000BBE0029EFBA
:1000A0008DF084FFADF022E4CCF875F008EF2FFF5F
:1000B000EE33FEEC33FCEE9DEC984005FCEE9DFE2D
:1000C0000FD5F0E9E4CEFD22EDF8F5F0EE8420D274
:1000D0001CFEADF075F008EF2FFFED33FD400798E3
:1000E0005006D5F0F222C398FD0FD5F0EA22E88F32
:1000F000F0A4CC8BF0A42CFCE98EF0A42CFC8AF0AC
:10010000EDA42CFCEA8EF0A4CDA8F08BF0A42DCCAD
:100110003825F0FDE98FF0A42CCD35F0FCEB8EF006
:10012000A4FEA9F0EB8FF0A4CFC5F02ECD39FEE4EC
:100130003CFCEAA42DCE35F0FDE43CFC2275F00831
:10014000758200EF2FFFEE33FECD33CDCC33CCC51F
:100150008233C5829BED9AEC99E58298400CF5823A
:10016000EE9BFEED9AFDEC99FC0FD5F0D6E4CEFBAC
:10017000E4CDFAE4CCF9A88222B800C1B90059BA9A
:10018000002DEC8BF084CFCECDFCE5F0CBF97818C8
:10019000EF2FFFEE33FEED33FDEC33FCEB33FB10C2
:1001A000D703994004EB99FB0FD8E5E4F9FA2278DC
:1001B00018EF2FFFEE33FEED33FDEC33FCC933C9EE
:1001C00010D7059BE99A4007EC9BFCE99AF90FD8F8
:1001D000E0E4C9FAE4CCFB2275F010EF2FFFEE3318
:1001E000FEED33FDCC33CCC833C810D7079BEC9A57
:1001F000E899400AED9BFDEC9AFCE899F80FD5F0E0
:10020000DAE4CDFBE4CCFAE4C8F922EB9FF5F0EA9E
:100210009E42F0E99D42F0E89C45F022E8600FEC38
:10022000C313FCED13FDEE13FEEF13FFD8F122E82C
:10023000600FEFC333FFEE33FEED33FDEC33FCD83C
:10024000F122E6FC08E6FD08E6FE08E6FF22E6FBF2
:1002500008E6F908E6FA08E6CBF822ECF608EDF62F
:1002600008EEF608EFF622ECF208EDF208EEF208DE
:10027000EFF222D083D082E493F608740193F6085B
:10028000740293F608740393F6740473D083D082D7
:10029000E493F208740193F208740293F208740371
:1002A00093F27404738A838982E4738E328F33E409
:1002B000F535F536F53790008DE0F536A3E0F537E6
:1002C000E4F53490007BE0701690007DE0B4030FFD
:1002D000D3900097E09400900096E09400401EE5D3
:1002E0003425E0244CF8E4F208F2E53425E025E07A
:1002F000243AF812027C000000000203B4E5342521
:10030000E0244DF9E3700219E3701AE53425E02486
:1003100000F8E2FE08E2FFE53425E02446F8EEF2BC
:1003200008EFF28057E53425E02446F8E2FE08E2C3
:10033000FFE53425E02400F8E2FC08E2FD1219A1F3
:10034000D3EF9537EE95364033E53425E02400F8B9
:10035000E2FE08E2FFE53425E02446F8EEF208EF7D
:10036000F2E53425E0244CF8E4F208F2E53425E027
:1003700025E0243AF812027C00000000E53425E074
:100380002400F8E2FE08E2FFE53425E025E0243A07
:10039000F8C000E2FB08E2F908E2FA08E2CBF8E470
:1003A000FCFDEB2FFFEA3EFEED39FDEC38FCD00002
:1003B000120257E53425E0244CF808E22401F21833
:1003C000E23400F20534E534C3940350030202B36F
:1003D000E4F534E53425E0244DF9C3E3953319E31E
:1003E0009532400205350534E534B403E6E535645D
:1003F0000360030204AE74FF90008FF0A3F0E4A347
:10040000F0A3F0F534E53425E0244CF8E2FE08E2F0
:10041000FF4E7003020491E4FCFDC004A905AA0686
:10042000AB07E53425E025E0243AF8E2FC08E2FDDC
:1004300008E2FE08E2FFD0001201698E388F39D33E
:10044000900090E0953990008FE095384007E538AE
:10045000F0A3E539F0C3900092E09539900091E067
:1004600095385007E538F0A3E539F0E53425E02468
:1004700006F8E538F208E539F2E53425E0244CF8D1
:10048000E4F208F2E53425E025E0243AF812027C93
:1004900000000000C2080534E53464036003020371
:1004A000F590008FE0FEA3E0FFA3E0FCA3E0FD12C7
:1004B00019A1D3EF9464EE9400400312154D22E489
:1004C000F530E53025E025E0248BF8C0001202323B
:1004D000C00774512530F8E6FFFBE4FAF9F8D007BD
:1004E0001200DED00012024BE53025E025E0248B1F
:1004F000F8C000120232780712020CD00012024B30
:10050000E53025E025E0248BF8120232EC4D4E4F09
:100510006076E53025E025E02473F8120232E530FC
:1005200025E025E0248BF812023EC31201FB5003A4
:100530007F0322E53025E025E02473F812023EC057
:1005400000E53025E025E0248BF8120232D000C30C
:10055000EF9BF534EE9AF533ED99F532EC98F531E1
:10056000E47FFF7EFFFDFCAB34AA33A932A831C380
:100570001201FB40037F0322E53025E02400F8E56B
:1005800033F208E534F28015E530C39403500BE5EF
:100590003025E0240CF8E4F208F27F03220530E570
:1005A00030640360030204B2E4F530E53025E02452
:1005B00006F8E2FE08E2FFE53025E02400F8E2FC60
:1005C00008E2FDD39FEC9E401EE53025E02406F8AE
:1005D000E2FE08E2FFC3ED9FFFEC9EFEE48F388E43
:1005E00037F536F5358009E4F538F537F536F53564
:1005F000AF38AE37AD36AC35780712021F8F388E64
:10060000378D368C3590007AE070447F03FEFDFC18
:10061000AB38AA37A936A8351200DEE53025E0252B
:10062000E0241EF8E2FB08E2F908E2FA08E2CBF85F
:10063000EB2FFFEA3EFEE93DFDE83CFC78021202AA
:100640000CE53025E025E0241EF81202578033E542
:100650003025E025E0241EF8E2FC08E2FD08E2FE79
:1006600008E22538FFEE3537FEED3536FDEC353541
:10067000FC780112020CE53025E025E0241EF8127A
:100680000257E53025E025E0241EF8E2FC08E2FDF3
:1006900008E2FE08E2FF780712020CE53025E024AC
:1006A0000CF8EEF208EFF20530E530640360030267
:1006B000059B7F0722E4F533F532E53225E025E09E
:1006C000243AF812027C000000000532E532B4033F
:1006D000E91216DDE4F532E53225E025E0243AF8AA
:1006E000C000E2FC08E2FD08E2FE08E2FFE5322578
:1006F000E025E0247FF812023EEF2BFFEE3AFEEDFC
:1007000039FDEC38FCD0001202570532E532B40353
:10071000C60533E533C3940540B7E4F532AF33E49F
:10072000FCFDFEC004A905AA06AB07E53225E025BD
:10073000E0243AF8E2FC08E2FD08E2FE08E2FFD01D
:10074000001201698F378E368D358C34AB37AA365F
:10075000A935A834C00074512532F8E6FFE4FCFD49
:10076000FED0001200DE8F378E368D358C34780740
:1007700012020C8F378E368D358C34E47FE87E0381
:10078000FDFCAB37AA36A935A834D31201FB4030A3
:10079000E5372418FFE53634FCFEE53534FFFDE58A
:1007A0003434FFFCE53225E025E02473F812024BD7
:1007B000E53225E02400F87403F20874E8F2801EA4
:1007C000E53225E025E02473F81202630000000002
:1007D000E53225E02400F8E536F208E537F2E532A7
:1007E00025E025E0243AF812027C00000000E53202
:1007F00025E0244CF8E4F208F2E532C394035033C8
:10080000E53225E02400F8E2FE08E2FFE53225E0CB
:100810002406F8EEF208EFF2E53225E0240CF8E4C5
:10082000F208F2E53225E025E0241EF812027C00F1
:100830000000000532E5326403600302070D2285E3
:10084000BA3853BA0F43BA10E4F532E53225E02541
:10085000E0247FF8120263000000000532E532B4A4
:1008600003E975320575ABFF1218BCE4F533E533C7
:1008700025E025E0247FF8C000120232C004C00544
:10088000C006C00774972533F8E675F003A424BBAF
:10089000F582E43419F583E493FB740193FA74024E
:1008A00093F9120295A804A905AA06AB07D007D0B0
:1008B00006D005D004EF2BFFEE3AFEED39FDEC3803
:1008C000FCD00012024B0533E533C39403409FE490
:1008D000F5AB1218BCE4F533E53325E025E0247FC1
:1008E000F8C000120232C004C005C006C0077497E9
:1008F0002533F8E675F003A424BBF582E43419F53A
:1009000083E493FB740193FA740293F9120295A89D
:1009100004A905AA06AB07D007D006D005D004C3AA
:10092000EF9BFFEE9AFEED99FDEC98FCD0001202D1
:100930004B0533E533C39403409E1532E532600323
:10094000020855E4F533E4753710753627F535F5AB
:1009500034AF37AE36AD35AC34780712021F8F375F
:100960008E368D358C34E53325E025E0247FF81272
:10097000023E1201698F378E368D358C34745125C5
:1009800033F8A6070533E533B403BB8538BA22E450
:10099000FD300420ED25E02464F582E43417F5836E
:1009A000E493FE740193FFED25E02433F8A60608D6
:1009B000A607801EED25E02454F582E43417F58364
:1009C000E493FE740193FFED25E02433F8A60608B6
:1009D000A6070DBD03BBE4FDED25E0242AF8E2FEE9
:1009E00008E2FFED25E02413F9D3E39F19E39E40CD
:1009F00016ED25E02412F8E2FE08E2FFED25E024E2
:100A00002AF8EEF208EFF2ED25E02433F8E6FE08CE
:100A1000E6FFEEC313FEEF13FFED25E02413F9D339
:100A2000E39F19E39E5034ED25E02433F8E6FE08F9
:100A3000E6FFED75F008A4245BF8A60608A607ED0E
:100A400025E02433F8E6FE08E625E0FFEE33F8ED76
:100A500025E0242AC8F208EFF2803CED25E024745A
:100A6000F582E43417F583E493FE740193FFED25DA
:100A7000E02413F9D3E39F19E39E401BED25E02406
:100A80002AF9E3C313FE09E313FFED75F008A4246C
:100A90005BF8A60608A6070DED640360030209C80B
:100AA000E4FDED75F008A4245BF8E6FE08E6FFED32
:100AB00025E02430F8EEF208EFF20DBD03E4224306
:100AC0009F04E453C6DFE5C600B5C6F37583007521
:100AD000820775FD0DE4E5FEF4FF7583007582065F
:100AE00075FD0DE4E5FEB50704F59E8003759E00D7
:100AF00078100000D8FC53C6E043C60843C6807592
:100B0000960775971275830075820475FD0D85FE35
:100B10008F75830075820375FD0DE4E5FEF4FF75A6
:100B2000830075820275FD0DE4E5FEB50704F595B9
:100B3000800375958375BE0E5392FE9001007F0071
:100B40007E02E4F0A3DFFCDEFA78007F00E4F20826
:100B5000DFFC78FFE4F6D8FD7581A2020B8C020061
:100B600000020DDAE493A3F8E493A34003F68001B6
:100B7000F208DFF48029E493A3F85407240CC8C3D7
:100B800033C4540F4420C8834004F456800146F611
:100B9000DFE4800B0102040810204080901494E4EC
:100BA0007E019360BCA3FF543F30E509541FFEE46F
:100BB00093A360010ECF54C025E060A840B8E49331
:100BC000A3FAE493A3F8E493A3C8C582C8CAC58373
:100BD000CAF0A3C8C582C8CAC583CADFE9DEE780F8
:100BE000BE7532077D0774017E00A832088005C3F8
:100BF00033CE33CED8F9FFACACECFBE4EF5B700343
:100C0000D532E3ED601D74017E00A805088005C3A0
:100C100033CE33CED8F9FFACAEECFBE4EF5B700320
:100C20001D80E0AF327401A807088002C333D8FCEE
:100C3000F5AC7401A805088002C333D8FCFFF5ADFC
:100C40008FAE53AACF85BA3B53BA0F43BA10E4F51F
:100C500036F535F534F5331218BCE4F532749725C2
:100C600032F8E675F003A424BBF582E43419F58369
:100C7000E493740193FA740293F91202958F3A8EF9
:100C8000398D388C37AB36AA35A934A833C3120155
:100C9000FB500C853A368539358538348537330530
:100CA00032E532C3940340B5AF36AE35AD34AC3324
:100CB000780212020CE5362FF536E5353EF535E5BE
:100CC000343DF534E5333CF533AF36AE35AD34FC69
:100CD000781012020C8FB3AF36AE35AD34AC33782A
:100CE0000812020C8FB28536B143AA30853BBA7523
:100CF000AC0375ADC075AEC022E4F5307531081295
:100D000011121216991211B412189190007BEFF083
:100D100012000EEF60577F011217F8AD07AC06D333
:100D2000900083E09400900082E09400400FED7802
:100D300002CEC313CE13D8F9FDAC068027300811BC
:100D4000EDAE047803CEC313CE13D8F9FDAC068004
:100D500013C37837E2940A18E294005007ECC313E7
:100D6000FCED13FDAF05AE0412029B8003AF3122F0
:100D700090007AE06034E4900086F0A3F090008563
:100D8000E004F07006900084E004F07F051217F88C
:100D9000D3900085E09F900084E09E4014E4FF1211
:100DA00014F1E490007CF07F0322E4900084F0A32F
:100DB000F090007AE0FF90007CE06F602A1214F15E
:100DC00090007AE090007CF0784BE654F060187F59
:100DD0000C1217F8900096EEF0A3EFF0900096E05A
:100DE000C313F0A3E013F0AF31221219697D01E4BF
:100DF000FF1217197F011219087F0112194C121ADC
:100E0000B5121AA81218E21213B61217C312182C30
:100E1000D2AF753D01E53D24FD601114601924FE3B
:100E2000602614602A1460752407707412164E121E
:100E300012C1753D048069D2D8E53E70FC12003EB7
:100E40001219D3753D0680581204AF8F3D8051D3DF
:100E5000900083E09400900082E09400400CA3E0B6
:100E600024FFF0900082E034FFF0D3900097E094EC
:100E700000900096E09400400CA3E024FFF0900066
:100E800096E034FFF090007FE004F0700690007E62
:100E9000E004F012123F120CE98F3D8003753D040F
:100EA000900093E0B40124E4784AF6FF121AB5E406
:100EB000F0F51CF51D00051DE51D7002051CB42C88
:100EC000F4E51CB401EF7F01121AB5120FA0020E57
:100ED0000522C0E0C0F0C083C082C0D075D008C277
:100EE000CF30CD03020F9530CB4720CC44783FA6BE
:100EF000CEE6FFC39480403075F003EFA4247AF56A
:100F000082E5F03414F583E493FB740193FA7402E0
:100F1000938B238A24F5250525E5257002052414E5
:100F2000F912005EF5CE8009783FE62522F8E6F555
:100F3000CE30CC29783FE6C394804015AB230525FD
:100F4000E525AA247002052414F912005EF5CE806E
:100F500050783F06E62522F8E6F5CE804420CB41C6
:100F6000AFCE783FE6FE7028BF10028034BF20026B
:100F7000802FBF5008784EE64401F68024BF6008F9
:100F8000784EE654FEF680197840A60F18068011B8
:100F9000EEC3940A5008783FE62440F8A60F783F45
:100FA00006784A7601D0D0D082D083D0F0D0E0321B
:100FB00020CA030210607840E67003021060E478F3
:100FC0004AF6F53074402530F8E6FF74262530F8EF
:100FD000A60774402530F8E4F60530E530B40AE49D
:100FE000784AE6700320CA12E4F53074262530F8FA
:100FF000E4F60530E530B40AF222E52624E0600F7D
:1010000024B0601224607017E4FF12190880107F6A
:10101000011219088009E4FF1219FC7850A607E5AF
:101020002654F064807049E52745286043E527FE93
:101030007C00E42528FFEC3EFEC3EF940AEE94000A
:10104000402EE526540FFDBD0F19E4F530E530754F
:10105000F008A4245BF8A60608A6070530E530B41E
:1010600003EB22ED75F008A4245BF8A60608A6079A
:1010700022E4FFFEEE75F008A4245BF8E6FC08E627
:10108000FDEE25E02419F9C3E39D19E39C400D749E
:1010900001A806088002C333D8FC42070EBE03D461
:1010A000807DEEC394035077EE75F008A4245BF8BE
:1010B000E6FC08E6FDEE25E02419F9C3E39D19E3FB
:1010C0009C401DEE25E0241FF9C3E3940A19E39424
:1010D00000400D7401A806088002C333D8FC420703
:1010E000EE75F008A42473F8E6FC08E6FDEE25E0B2
:1010F000241FF9C3E39D19E39C4021EE25E0241948
:10110000F9C3E3940A19E394004011EE2403FD743B
:1011100001A805088002C333D8FC42070E80838FE4
:101120001822E4F535F536F532E53225E0240CF8E1
:10113000E2F53308E2F534C39536FFE5339535FE25
:10114000E4FCFD7B64FAF9F81200DEC006C007E596
:101150003225E02452F582E43400F583E0FEA3E07A
:10116000FFFBAA06E4F9F8D007D006120169E532C0
:1011700025E02418F8EEF208EFF2AE33AF34E4FCC9
:10118000FD7B64FAF9F81200DEC006C007E53225DF
:10119000E02452F582E43400F583E0FEA3E0FFFB97
:1011A000AA06E4F9F8D007D006120169E53225E075
:1011B0002412F8EEF208EFF20532E5326403600320
:1011C00002111922E4F532E53225E02406F8E2FEA8
:1011D00008E2FFE53225E02400F8E2FC08E2FDC366
:1011E0009FEC9E5048E53225E02407F8C3E29DF5C8
:1011F0003418E29CF533FEAF34E4FCFD7B64FAF96D
:10120000F81200DEC006C007E53225E02452F58260
:10121000E43400F583E0FEA3E0FFFBAA06E4F9F85E
:10122000D007D0061201698E358F368009E4F53378
:10123000F534F535F536D3E536940AE535940040B6
:1012400002D2080532E532640360030211B722E4DA
:10125000F530E53075F008A4245DFFE53025E02485
:1012600012F8E2FC08E2FD1219E8E53075F008A476
:10127000245FFFE53025E0240CF8E2FC08E2FD12D3
:1012800019E8E53075F008A42461FBC003E53025BA
:10129000E02400F8E2FE08E2FFE4FCFDE53025E092
:1012A00025E02473F812023EEF2BFFEE3AFEED39F3
:1012B000FDEC38FC780412020CAD07AC06D0071226
:1012C00019E80530E530C394034087784EE6F520F1
:1012D00022E4F530F531121986E490007AF090009E
:1012E0007CF0A3F0900084F0A3F0A3F0A3F09000B2
:1012F00098F0A3F0900096F0A3F0F521FFEF25E021
:101300002452F582E43400F583E0FCA3E0FD900074
:101310008EE02DF090008DE03CF00FBF03DF9000D9
:101320008DE0FEA3E0FF7C007D0F12008990008D10
:10133000EEF0A3EFF0120BD112082F1206A57F0AD0
:101340001217F8900082EEF0A3EFF01219D3227D6D
:10135000FF80707863E6FE08E6FFC3781BE29F1803
:10136000E29E40107873E6FE08E6FF781FE29F18C1
:10137000E29E504F7810E2FE08E2FF780DE22FF572
:101380003418E23EF5337812E2FE08E2FF780FE20D
:101390002FFF18E23EAB07FAEB25E0FFEA33FEC36E
:1013A000E5349FE5339E50035305FAE53425E0FF0D
:1013B000E53333FEC3EB9FEA9E50085305F58003E7
:1013C0005305F08D1922E4F530784BF6FF1219FC25
:1013D0008F30E530BFFF06E4784CF68004784C7619
:1013E000FF784D7601E408F6785076FFFFEF25E0B0
:1013F0002454F582E43417F583E493FC740193FDDF
:10140000EF75F008A4245BF8A60408A605EF75F0B4
:1014100008A4245DF8E4F608F6EF75F008A4245F4C
:10142000F8E4F608F6EF75F008A42461F8E4F6088D
:10143000F60FBF03B875224B22C0E0C0F0C083C0D6
:1014400082C0D075D000C000C004C005C006C0076F
:10145000C28D758CD8758AF0051FE51F7002051EB8
:10146000AE1EFF7C007D64120089ED4C702190005F
:101470007EE0FEA3E0FFD3940AEE94004006A3EEC4
:10148000F0A3EFF090007EE4F0A3F0F51EF51FD07E
:1014900007D006D005D004D000D0D0D082D083D0E1
:1014A000F0D0E0320897010203FFFFFFFFFF049F27
:1014B00000000000604800520064006400640064A2
:1014C0000064006400640064010204080506070863
:1014D000000000000000000000000000000000000C
:1014E00000000000000000000000000000000000FC
:1014F00000000000000000000000000000000000EC
:1015000000900093E0705504F0E4FEFDFC7401A827
:1015100004088002C333D8FCF9FB90007CE05BB583
:101520000313EC2404FA7401A802088002C333D820
:10153000FC42068003E94206EF5BB50305E942057C
:101540008011EC2404FB7401A803088002C333D883
:10155000FC42050CBC03B6EE5D784BF622E4FBEBD7
:1015600025E025E0248BF8120232EF2418FFEE3438
:10157000FCFEED34FFFDEC34FFFCEB25E025E02420
:1015800073F812024BEB25E02400F87403F20874A0
:10159000E8F2EBC394035017EB25E0240CF8E4F2D7
:1015A00008F2EB25E02406F87403F20874E8F20B65
:1015B000BB03AC22C0E0C0F0C083C082C0D075D0F5
:1015C0001053B9FD753C007497253CF8E675F0039F
:1015D000A424BBF582E43419F583E493740193FAEF
:1015E000740293F9120295E53C25E025E0247FF88A
:1015F00012024B053CE53CC3940340CB753E00D042
:10160000D0D082D083D0F0D0E032FE0000FE0008BF
:10161000FE0006FE000EFE000CFE0014FE0012FE90
:10162000001AFE0018FE002000007F000087000066
:101630008F00009700001801007B01007A01007CF8
:10164000FE001EFE002A01007E01009101009301B0
:10165000009601006A010072FE0030FE004CE4FFBB
:10166000FE74972EF8E69017849342070EBE03F19E
:10167000EF42D4EF42F4EF42E4EFF452DC75AA3BC0
:1016800075BA0C43BA4043B92053B9BF8FB4E4F5DF
:10169000B375B24E75B12075BBFF75A950F5AB752A
:1016A000AC0375ADC075AEC0227818E2FE08E2FF4B
:1016B0008E32F5337D01ED25E02418F8E2FA08E2D8
:1016C000FBC39533EA953250048A328B33D3EB9FB8
:1016D000EA9E4004AE02AF030DBD03DA7838E5326E
:1016E000F208E533F27836EEF208EFF2221218BC77
:1016F000E4F53874972538F8E675F003A424BBF5B3
:1017000082E43419F583E493740193FA740293F933
:10171000120295E53825E025E0247FF812024B05FA
:1017200038E538C3940340CB22E4FE7C03ECC39439
:1017300003500E74972CF8E69017849342060C80A1
:10174000ECEF6005EE42D48004EEF452D4EEF4FFE8
:1017500052F4EE42E4ED6005EE42EC8003EF52EC11
:10176000EF52DC22003C003C003C003C003C003CD2
:10177000003C003C003C003C003C003C003C003C89
:10178000003C003C00C800C800C8003C003C003CD5
:10179000003C003C01020408102040809BE4FFFE56
:1017A000EE75F008A4245CF8E624FBFD18E634FF8F
:1017B000FCEE25E02413F9C3E39D19E39C400D746E
:1017C00001A806088002C333D8FC42070EBE03D02E
:1017D0008F1B227E007F6AE4FDED25E0242CF5823C
:1017E000E43419F583E493F4601DED25E0242DF530
:1017F00082E43419F583E493FCEF2DF582E43EF5A1
:1018000083ECF00DBD10D22275320075336A7B0176
:101810007A00BFFF057F017E0022E5332FF582E4C9
:101820003532F583E07A00FB900080E0FCA3E0FD18
:10183000AF037E00120077AA06AB072243F80875B3
:10184000CD4053CC7F43CC4043CC2043CC1043CC41
:101850000453CCFD43CB0243CB0153CBBF43E80839
:1018600053E5FC43E30243F50343900343ED0322B6
:10187000A907E4FDFC74017E00A804088005C333B9
:10188000CE33CED8F9FFE9FBE4EF5B600D7401A81D
:1018900004088002C333D8FC42050CBC03D7AF0553
:1018A0002212097F12106112133F12000312178DCA
:1018B00090007AE0700D851832E5195232E51A521F
:1018C000328003851B32AF321218602275BF0F00C1
:1018D0000000000000000000000000000000000008
:1018E00000D2D853B9FD43B901E5B930E1FBE4F5C5
:1018F000BF22438901C28DD2A953B8FDE4F51EF57C
:101900001F90007EF0A3F0A3F0A37464F0758CD850
:10191000758AF0D28CD2AF22E4FE7D03EDC394032E
:10192000500E74972DF8E69017849342060D80ECC4
:10193000EF6004EE428022EEF452802200020101A8
:10194000020103010405050606060702080A09024A
:101950000A020B280C010D030E01FF01EF60054385
:10196000D504800353D5FB53F5FB53E5FB43E30458
:1019700043ED04E4900093F022E4F5E3439F104329
:101980009F02FF0FBFFFFC539FEF75BE0EE4F5BF34
:10199000F5B97592762253BAFEE5B920E004E53E2A
:1019A0006005E5B930E1FBE4F5BF53B9FE53B9FD7D
:1019B00022AB07AA06D3EB9DEA9C4007EB9DFFEA0A
:1019C0009CFE22C3ED9BFFEC9AFE22FF1A10FF1A29
:1019D00023FF1A36FF1A49FF1A5CFF1A6FFF1A829B
:1019E000FF1A9575BF0F43B92053B9FD43BA01756E
:1019F0003E0143B901D2D822AB07AF04AE05C2AF56
:101A0000A803A607E804F8A606D2AF22E4FFF582F1
:101A1000F5837420FEE493F42FFFA3EEB583F62242
:101A200053B9EF78A0A6B708A6B608A6B5789F1256
:101A300002322253B9EF78A0A6EB08A6EA08A6E97D
:101A4000789F1202322253B9EF78A0A6F308A6F2CB
:101A500008A6F1789F1202322253B9EF78A0A6FBB4
:101A600008A6FA08A6F9789F1202322243B9107824
:101A7000A0A6B708A6B608A6B5789F1202322243E0
:101A8000B91078A0A6EB08A6EA08A6E9789F12028A
:101A9000322243B91078A0A6F308A6F208A6F1787E
:101AA0009F1202322243B91078A0A6FB08A6FA08BA
:101AB000A6F9789F12023222C2DA53D80F43D8D047
:101AC000D2D8D2D922EF6003D29222C29222FFFF53
:00000001FF
